{"abi":[{"type":"constructor","inputs":[],"stateMutability":"nonpayable"},{"type":"function","name":"TOTAL_SUPPLY","inputs":[],"outputs":[{"name":"","type":"uint256","internalType":"uint256"}],"stateMutability":"view"},{"type":"function","name":"allowToTradeEarly","inputs":[{"name":"account","type":"address","internalType":"address"},{"name":"allowed","type":"bool","internalType":"bool"}],"outputs":[],"stateMutability":"nonpayable"},{"type":"function","name":"allowance","inputs":[{"name":"owner","type":"address","internalType":"address"},{"name":"spender","type":"address","internalType":"address"}],"outputs":[{"name":"","type":"uint256","internalType":"uint256"}],"stateMutability":"view"},{"type":"function","name":"approve","inputs":[{"name":"spender","type":"address","internalType":"address"},{"name":"value","type":"uint256","internalType":"uint256"}],"outputs":[{"name":"","type":"bool","internalType":"bool"}],"stateMutability":"nonpayable"},{"type":"function","name":"balanceOf","inputs":[{"name":"account","type":"address","internalType":"address"}],"outputs":[{"name":"","type":"uint256","internalType":"uint256"}],"stateMutability":"view"},{"type":"function","name":"buyTaxPercentage","inputs":[],"outputs":[{"name":"","type":"uint256","internalType":"uint256"}],"stateMutability":"view"},{"type":"function","name":"decimals","inputs":[],"outputs":[{"name":"","type":"uint8","internalType":"uint8"}],"stateMutability":"view"},{"type":"function","name":"enableTrading","inputs":[],"outputs":[],"stateMutability":"nonpayable"},{"type":"function","name":"excludeFromTax","inputs":[{"name":"account","type":"address","internalType":"address"},{"name":"excluded","type":"bool","internalType":"bool"}],"outputs":[],"stateMutability":"nonpayable"},{"type":"function","name":"isAllowedToTradeEarly","inputs":[{"name":"","type":"address","internalType":"address"}],"outputs":[{"name":"","type":"bool","internalType":"bool"}],"stateMutability":"view"},{"type":"function","name":"isExcludedFromTax","inputs":[{"name":"","type":"address","internalType":"address"}],"outputs":[{"name":"","type":"bool","internalType":"bool"}],"stateMutability":"view"},{"type":"function","name":"launchTime","inputs":[],"outputs":[{"name":"","type":"uint256","internalType":"uint256"}],"stateMutability":"view"},{"type":"function","name":"name","inputs":[],"outputs":[{"name":"","type":"string","internalType":"string"}],"stateMutability":"view"},{"type":"function","name":"owner","inputs":[],"outputs":[{"name":"","type":"address","internalType":"address"}],"stateMutability":"view"},{"type":"function","name":"renounceOwnership","inputs":[],"outputs":[],"stateMutability":"nonpayable"},{"type":"function","name":"rescueTokens","inputs":[{"name":"tokenAddress","type":"address","internalType":"address"},{"name":"to","type":"address","internalType":"address"},{"name":"amount","type":"uint256","internalType":"uint256"}],"outputs":[],"stateMutability":"nonpayable"},{"type":"function","name":"sellTaxPercentage","inputs":[],"outputs":[{"name":"","type":"uint256","internalType":"uint256"}],"stateMutability":"view"},{"type":"function","name":"setTaxPercentages","inputs":[{"name":"newBuyTax","type":"uint256","internalType":"uint256"},{"name":"newSellTax","type":"uint256","internalType":"uint256"}],"outputs":[],"stateMutability":"nonpayable"},{"type":"function","name":"symbol","inputs":[],"outputs":[{"name":"","type":"string","internalType":"string"}],"stateMutability":"view"},{"type":"function","name":"totalSupply","inputs":[],"outputs":[{"name":"","type":"uint256","internalType":"uint256"}],"stateMutability":"view"},{"type":"function","name":"tradingEnabled","inputs":[],"outputs":[{"name":"","type":"bool","internalType":"bool"}],"stateMutability":"view"},{"type":"function","name":"transfer","inputs":[{"name":"to","type":"address","internalType":"address"},{"name":"value","type":"uint256","internalType":"uint256"}],"outputs":[{"name":"","type":"bool","internalType":"bool"}],"stateMutability":"nonpayable"},{"type":"function","name":"transferFrom","inputs":[{"name":"from","type":"address","internalType":"address"},{"name":"to","type":"address","internalType":"address"},{"name":"value","type":"uint256","internalType":"uint256"}],"outputs":[{"name":"","type":"bool","internalType":"bool"}],"stateMutability":"nonpayable"},{"type":"function","name":"transferOwnership","inputs":[{"name":"newOwner","type":"address","internalType":"address"}],"outputs":[],"stateMutability":"nonpayable"},{"type":"function","name":"withdrawETH","inputs":[{"name":"to","type":"address","internalType":"address"},{"name":"amount","type":"uint256","internalType":"uint256"}],"outputs":[],"stateMutability":"nonpayable"},{"type":"event","name":"AllowedToTradeEarly","inputs":[{"name":"account","type":"address","indexed":true,"internalType":"address"},{"name":"allowed","type":"bool","indexed":false,"internalType":"bool"}],"anonymous":false},{"type":"event","name":"Approval","inputs":[{"name":"owner","type":"address","indexed":true,"internalType":"address"},{"name":"spender","type":"address","indexed":true,"internalType":"address"},{"name":"value","type":"uint256","indexed":false,"internalType":"uint256"}],"anonymous":false},{"type":"event","name":"ExcludedFromTax","inputs":[{"name":"account","type":"address","indexed":true,"internalType":"address"},{"name":"excluded","type":"bool","indexed":false,"internalType":"bool"}],"anonymous":false},{"type":"event","name":"OwnershipTransferred","inputs":[{"name":"previousOwner","type":"address","indexed":true,"internalType":"address"},{"name":"newOwner","type":"address","indexed":true,"internalType":"address"}],"anonymous":false},{"type":"event","name":"TaxPercentageUpdated","inputs":[{"name":"buyTax","type":"uint256","indexed":false,"internalType":"uint256"},{"name":"sellTax","type":"uint256","indexed":false,"internalType":"uint256"}],"anonymous":false},{"type":"event","name":"TradingEnabled","inputs":[{"name":"timestamp","type":"uint256","indexed":false,"internalType":"uint256"}],"anonymous":false},{"type":"event","name":"Transfer","inputs":[{"name":"from","type":"address","indexed":true,"internalType":"address"},{"name":"to","type":"address","indexed":true,"internalType":"address"},{"name":"value","type":"uint256","indexed":false,"internalType":"uint256"}],"anonymous":false},{"type":"error","name":"ERC20InsufficientAllowance","inputs":[{"name":"spender","type":"address","internalType":"address"},{"name":"allowance","type":"uint256","internalType":"uint256"},{"name":"needed","type":"uint256","internalType":"uint256"}]},{"type":"error","name":"ERC20InsufficientBalance","inputs":[{"name":"sender","type":"address","internalType":"address"},{"name":"balance","type":"uint256","internalType":"uint256"},{"name":"needed","type":"uint256","internalType":"uint256"}]},{"type":"error","name":"ERC20InvalidApprover","inputs":[{"name":"approver","type":"address","internalType":"address"}]},{"type":"error","name":"ERC20InvalidReceiver","inputs":[{"name":"receiver","type":"address","internalType":"address"}]},{"type":"error","name":"ERC20InvalidSender","inputs":[{"name":"sender","type":"address","internalType":"address"}]},{"type":"error","name":"ERC20InvalidSpender","inputs":[{"name":"spender","type":"address","internalType":"address"}]},{"type":"error","name":"OwnableInvalidOwner","inputs":[{"name":"owner","type":"address","internalType":"address"}]},{"type":"error","name":"OwnableUnauthorizedAccount","inputs":[{"name":"account","type":"address","internalType":"address"}]}],"bytecode":{"object":"0x608060405260026006819055600755600a805460ff1916905534801562000024575f80fd5b50336040518060400160405280600881526020016726b2b6b2b1b7b4b760c11b815250604051806040016040528060048152602001634d454d4560e01b815250816003908162000075919062000611565b50600462000084828262000611565b5050506001600160a01b038116620000b657604051631e4fbdf760e01b81525f60048201526024015b60405180910390fd5b620000c1816200010f565b50620000da336b033b2e3c9fd0803ce800000062000160565b335f908152600860205260408082208054600160ff199182168117909255308452919092208054909116909117905562000759565b600580546001600160a01b038381166001600160a01b0319831681179093556040519116919082907f8be0079c531659141344cd1fd0a4f28419497f9722a3daafe3b4186f6b6457e0905f90a35050565b6001600160a01b0382166200018b5760405163ec442f0560e01b81525f6004820152602401620000ad565b620001985f83836200019c565b5050565b6001600160a01b03831615801590620001bd57506001600160a01b03821615155b156200030f57600a5460ff166200025a576001600160a01b0383165f9081526009602052604090205460ff16806200020c57506001600160a01b0382165f9081526009602052604090205460ff165b6200025a5760405162461bcd60e51b815260206004820152601760248201527f54726164696e67206e6f7420656e61626c6564207965740000000000000000006044820152606401620000ad565b600a5460ff1680156200027d5750600b546200027a9062015180620006ed565b42105b156200030f576001600160a01b0383165f9081526009602052604090205460ff1680620002c157506001600160a01b0382165f9081526009602052604090205460ff165b6200030f5760405162461bcd60e51b815260206004820181905260248201527f54726164696e67207265737472696374656420647572696e67206c61756e63686044820152606401620000ad565b5f6200031d84848462000356565b90505f6200032c828462000709565b9050811562000342576200034285308462000442565b6200034f85858362000442565b5050505050565b6001600160a01b0383165f9081526008602052604081205460ff16806200039457506001600160a01b0383165f9081526008602052604090205460ff165b15620003a257505f6200043b565b5f6001600160a01b0385161580620003c157506001600160a01b038416155b15620003cf57505f62000438565b306001600160a01b038516036200040657606460075484620003f291906200071f565b620003fe919062000739565b905062000438565b6001600160a01b038516301462000438576064600654846200042991906200071f565b62000435919062000739565b90505b90505b9392505050565b6001600160a01b03831662000470578060025f828254620004649190620006ed565b90915550620004e29050565b6001600160a01b0383165f9081526020819052604090205481811015620004c45760405163391434e360e21b81526001600160a01b03851660048201526024810182905260448101839052606401620000ad565b6001600160a01b0384165f9081526020819052604090209082900390555b6001600160a01b03821662000500576002805482900390556200051e565b6001600160a01b0382165f9081526020819052604090208054820190555b816001600160a01b0316836001600160a01b03167fddf252ad1be2c89b69c2b068fc378daa952ba7f163c4a11628f55a4df523b3ef836040516200056491815260200190565b60405180910390a3505050565b634e487b7160e01b5f52604160045260245ffd5b600181811c908216806200059a57607f821691505b602082108103620005b957634e487b7160e01b5f52602260045260245ffd5b50919050565b601f8211156200060c575f81815260208120601f850160051c81016020861015620005e75750805b601f850160051c820191505b818110156200060857828155600101620005f3565b5050505b505050565b81516001600160401b038111156200062d576200062d62000571565b62000645816200063e845462000585565b84620005bf565b602080601f8311600181146200067b575f8415620006635750858301515b5f19600386901b1c1916600185901b17855562000608565b5f85815260208120601f198616915b82811015620006ab578886015182559484019460019091019084016200068a565b5085821015620006c957878501515f19600388901b60f8161c191681555b5050505050600190811b01905550565b634e487b7160e01b5f52601160045260245ffd5b80820180821115620007035762000703620006d9565b92915050565b81810381811115620007035762000703620006d9565b8082028115828204841417620007035762000703620006d9565b5f826200075457634e487b7160e01b5f52601260045260245ffd5b500490565b6110e680620007675f395ff3fe608060405234801561000f575f80fd5b506004361061016d575f3560e01c80638da5cb5b116100d9578063be47e31a11610093578063cea9d26f1161006e578063cea9d26f1461030e578063dd62ed3e14610321578063e7dbc23d14610359578063f2fde38b1461036c575f80fd5b8063be47e31a146102c6578063c6a30647146102d9578063cb4ca631146102ec575f80fd5b80638da5cb5b14610252578063902d55a51461026d57806395d89b41146102805780639e7d8d1d14610288578063a9059cbb14610291578063b0148266146102a4575f80fd5b80634ada218b1161012a5780634ada218b146101fb57806370a0823114610208578063715018a614610230578063760bf18614610238578063790ca413146102415780638a8c523c1461024a575f80fd5b806306fdde0314610171578063095ea7b31461018f57806318160ddd146101b257806323b872dd146101c4578063313ce567146101d75780634782f779146101e6575b5f80fd5b61017961037f565b6040516101869190610e7a565b60405180910390f35b6101a261019d366004610ee0565b61040f565b6040519015158152602001610186565b6002545b604051908152602001610186565b6101a26101d2366004610f08565b610428565b60405160128152602001610186565b6101f96101f4366004610ee0565b61044d565b005b600a546101a29060ff1681565b6101b6610216366004610f41565b6001600160a01b03165f9081526020819052604090205490565b6101f96104e8565b6101b660065481565b6101b6600b5481565b6101f96104fb565b6005546040516001600160a01b039091168152602001610186565b6101b66b033b2e3c9fd0803ce800000081565b6101796105a5565b6101b660075481565b6101a261029f366004610ee0565b6105b4565b6101a26102b2366004610f41565b60096020525f908152604090205460ff1681565b6101f96102d4366004610f67565b6105c1565b6101f96102e7366004610f67565b610628565b6101a26102fa366004610f41565b60086020525f908152604090205460ff1681565b6101f961031c366004610f08565b610687565b6101b661032f366004610f9c565b6001600160a01b039182165f90815260016020908152604080832093909416825291909152205490565b6101f9610367366004610fcd565b61077a565b6101f961037a366004610f41565b61086b565b60606003805461038e90610fed565b80601f01602080910402602001604051908101604052809291908181526020018280546103ba90610fed565b80156104055780601f106103dc57610100808354040283529160200191610405565b820191905f5260205f20905b8154815290600101906020018083116103e857829003601f168201915b5050505050905090565b5f3361041c8185856108a8565b60019150505b92915050565b5f336104358582856108b5565b610440858585610931565b60019150505b9392505050565b61045561098e565b6001600160a01b0382166104b05760405162461bcd60e51b815260206004820152601b60248201527f43616e6e6f742073656e6420746f207a65726f2061646472657373000000000060448201526064015b60405180910390fd5b6040516001600160a01b0383169082156108fc029083905f818181858888f193505050501580156104e3573d5f803e3d5ffd5b505050565b6104f061098e565b6104f95f6109bb565b565b61050361098e565b600a5460ff16156105565760405162461bcd60e51b815260206004820152601760248201527f54726164696e6720616c726561647920656e61626c656400000000000000000060448201526064016104a7565b600a805460ff1916600117905542600b8190556040517fb3da2db3dfc3778f99852546c6e9ab39ec253f9de7b0847afec61bd27878e9239161059b9190815260200190565b60405180910390a1565b60606004805461038e90610fed565b5f3361041c818585610931565b6105c961098e565b6001600160a01b0382165f81815260096020908152604091829020805460ff191685151590811790915591519182527fa3417cde400a3eba4516c6021d2b488102d5432cccbf78249b1377df2dda0f5791015b60405180910390a25050565b61063061098e565b6001600160a01b0382165f81815260086020908152604091829020805460ff191685151590811790915591519182527fea5814d1cf99e5f6aee98da410ea4adcdbe5ded97855de3b25144b0898d0be4a910161061c565b61068f61098e565b6001600160a01b0382166106e55760405162461bcd60e51b815260206004820152601b60248201527f43616e6e6f742073656e6420746f207a65726f2061646472657373000000000060448201526064016104a7565b306001600160a01b03841603610700576104e3308383610a0c565b60405163a9059cbb60e01b81526001600160a01b0383811660048301526024820183905284919082169063a9059cbb906044016020604051808303815f875af115801561074f573d5f803e3d5ffd5b505050506040513d601f19601f820116820180604052508101906107739190611025565b5050505050565b61078261098e565b600a8211156107d35760405162461bcd60e51b815260206004820152601960248201527f427579207461782063616e6e6f7420657863656564203130250000000000000060448201526064016104a7565b600a8111156108245760405162461bcd60e51b815260206004820152601a60248201527f53656c6c207461782063616e6e6f74206578636565642031302500000000000060448201526064016104a7565b6006829055600781905560408051838152602081018390527f4953fbf85b1bef649a55e328880dc688093c62b90bc90dec0ffcb6a1c5cce0a5910160405180910390a15050565b61087361098e565b6001600160a01b03811661089c57604051631e4fbdf760e01b81525f60048201526024016104a7565b6108a5816109bb565b50565b6104e38383836001610b32565b6001600160a01b038381165f908152600160209081526040808320938616835292905220545f1981101561092b578181101561091d57604051637dc7a0d960e11b81526001600160a01b038416600482015260248101829052604481018390526064016104a7565b61092b84848484035f610b32565b50505050565b6001600160a01b03831661095a57604051634b637e8f60e11b81525f60048201526024016104a7565b6001600160a01b0382166109835760405163ec442f0560e01b81525f60048201526024016104a7565b6104e3838383610c04565b6005546001600160a01b031633146104f95760405163118cdaa760e01b81523360048201526024016104a7565b600580546001600160a01b038381166001600160a01b0319831681179093556040519116919082907f8be0079c531659141344cd1fd0a4f28419497f9722a3daafe3b4186f6b6457e0905f90a35050565b6001600160a01b038316610a36578060025f828254610a2b9190611054565b90915550610aa69050565b6001600160a01b0383165f9081526020819052604090205481811015610a885760405163391434e360e21b81526001600160a01b038516600482015260248101829052604481018390526064016104a7565b6001600160a01b0384165f9081526020819052604090209082900390555b6001600160a01b038216610ac257600280548290039055610ae0565b6001600160a01b0382165f9081526020819052604090208054820190555b816001600160a01b0316836001600160a01b03167fddf252ad1be2c89b69c2b068fc378daa952ba7f163c4a11628f55a4df523b3ef83604051610b2591815260200190565b60405180910390a3505050565b6001600160a01b038416610b5b5760405163e602df0560e01b81525f60048201526024016104a7565b6001600160a01b038316610b8457604051634a1406b160e11b81525f60048201526024016104a7565b6001600160a01b038085165f908152600160209081526040808320938716835292905220829055801561092b57826001600160a01b0316846001600160a01b03167f8c5be1e5ebec7d5bd14f71427d1e84f3dd0314c0f7b2291e5b200ac8c7c3b92584604051610bf691815260200190565b60405180910390a350505050565b6001600160a01b03831615801590610c2457506001600160a01b03821615155b15610d6a57600a5460ff16610cbc576001600160a01b0383165f9081526009602052604090205460ff1680610c7057506001600160a01b0382165f9081526009602052604090205460ff165b610cbc5760405162461bcd60e51b815260206004820152601760248201527f54726164696e67206e6f7420656e61626c65642079657400000000000000000060448201526064016104a7565b600a5460ff168015610cdc5750600b54610cd99062015180611054565b42105b15610d6a576001600160a01b0383165f9081526009602052604090205460ff1680610d1e57506001600160a01b0382165f9081526009602052604090205460ff165b610d6a5760405162461bcd60e51b815260206004820181905260248201527f54726164696e67207265737472696374656420647572696e67206c61756e636860448201526064016104a7565b5f610d76848484610da1565b90505f610d838284611067565b90508115610d9657610d96853084610a0c565b610773858583610a0c565b6001600160a01b0383165f9081526008602052604081205460ff1680610dde57506001600160a01b0383165f9081526008602052604090205460ff165b15610dea57505f610446565b5f6001600160a01b0385161580610e0857506001600160a01b038416155b15610e1457505f610e72565b306001600160a01b03851603610e4557606460075484610e34919061107a565b610e3e9190611091565b9050610e72565b6001600160a01b0385163014610e7257606460065484610e65919061107a565b610e6f9190611091565b90505b949350505050565b5f6020808352835180828501525f5b81811015610ea557858101830151858201604001528201610e89565b505f604082860101526040601f19601f8301168501019250505092915050565b80356001600160a01b0381168114610edb575f80fd5b919050565b5f8060408385031215610ef1575f80fd5b610efa83610ec5565b946020939093013593505050565b5f805f60608486031215610f1a575f80fd5b610f2384610ec5565b9250610f3160208501610ec5565b9150604084013590509250925092565b5f60208284031215610f51575f80fd5b61044682610ec5565b80151581146108a5575f80fd5b5f8060408385031215610f78575f80fd5b610f8183610ec5565b91506020830135610f9181610f5a565b809150509250929050565b5f8060408385031215610fad575f80fd5b610fb683610ec5565b9150610fc460208401610ec5565b90509250929050565b5f8060408385031215610fde575f80fd5b50508035926020909101359150565b600181811c9082168061100157607f821691505b60208210810361101f57634e487b7160e01b5f52602260045260245ffd5b50919050565b5f60208284031215611035575f80fd5b815161044681610f5a565b634e487b7160e01b5f52601160045260245ffd5b8082018082111561042257610422611040565b8181038181111561042257610422611040565b808202811582820484141761042257610422611040565b5f826110ab57634e487b7160e01b5f52601260045260245ffd5b50049056fea2646970667358221220395f8cce7dc9a6ebb74529207536c43b394877acc89d81341f7f690520a51c2f64736f6c63430008140033","linkReferences":{}},"methodIdentifiers":{"TOTAL_SUPPLY()":"902d55a5","allowToTradeEarly(address,bool)":"be47e31a","allowance(address,address)":"dd62ed3e","approve(address,uint256)":"095ea7b3","balanceOf(address)":"70a08231","buyTaxPercentage()":"760bf186","decimals()":"313ce567","enableTrading()":"8a8c523c","excludeFromTax(address,bool)":"c6a30647","isAllowedToTradeEarly(address)":"b0148266","isExcludedFromTax(address)":"cb4ca631","launchTime()":"790ca413","name()":"06fdde03","owner()":"8da5cb5b","renounceOwnership()":"715018a6","rescueTokens(address,address,uint256)":"cea9d26f","sellTaxPercentage()":"9e7d8d1d","setTaxPercentages(uint256,uint256)":"e7dbc23d","symbol()":"95d89b41","totalSupply()":"18160ddd","tradingEnabled()":"4ada218b","transfer(address,uint256)":"a9059cbb","transferFrom(address,address,uint256)":"23b872dd","transferOwnership(address)":"f2fde38b","withdrawETH(address,uint256)":"4782f779"},"id":6}