{"abi":[{"type":"constructor","inputs":[],"stateMutability":"nonpayable"},{"type":"receive","stateMutability":"payable"},{"type":"function","name":"INITIAL_CONTRACT_BALANCE","inputs":[],"outputs":[{"name":"","type":"uint256","internalType":"uint256"}],"stateMutability":"view"},{"type":"function","name":"TOTAL_SUPPLY","inputs":[],"outputs":[{"name":"","type":"uint256","internalType":"uint256"}],"stateMutability":"view"},{"type":"function","name":"allowance","inputs":[{"name":"owner","type":"address","internalType":"address"},{"name":"spender","type":"address","internalType":"address"}],"outputs":[{"name":"","type":"uint256","internalType":"uint256"}],"stateMutability":"view"},{"type":"function","name":"approve","inputs":[{"name":"spender","type":"address","internalType":"address"},{"name":"value","type":"uint256","internalType":"uint256"}],"outputs":[{"name":"","type":"bool","internalType":"bool"}],"stateMutability":"nonpayable"},{"type":"function","name":"balanceOf","inputs":[{"name":"account","type":"address","internalType":"address"}],"outputs":[{"name":"","type":"uint256","internalType":"uint256"}],"stateMutability":"view"},{"type":"function","name":"decimals","inputs":[],"outputs":[{"name":"","type":"uint8","internalType":"uint8"}],"stateMutability":"view"},{"type":"function","name":"name","inputs":[],"outputs":[{"name":"","type":"string","internalType":"string"}],"stateMutability":"view"},{"type":"function","name":"owner","inputs":[],"outputs":[{"name":"","type":"address","internalType":"address"}],"stateMutability":"view"},{"type":"function","name":"renounceOwnership","inputs":[],"outputs":[],"stateMutability":"nonpayable"},{"type":"function","name":"setTokensPerEth","inputs":[{"name":"newRate","type":"uint256","internalType":"uint256"}],"outputs":[],"stateMutability":"nonpayable"},{"type":"function","name":"swapETHForTokens","inputs":[],"outputs":[],"stateMutability":"payable"},{"type":"function","name":"symbol","inputs":[],"outputs":[{"name":"","type":"string","internalType":"string"}],"stateMutability":"view"},{"type":"function","name":"tokensPerEth","inputs":[],"outputs":[{"name":"","type":"uint256","internalType":"uint256"}],"stateMutability":"view"},{"type":"function","name":"totalSupply","inputs":[],"outputs":[{"name":"","type":"uint256","internalType":"uint256"}],"stateMutability":"view"},{"type":"function","name":"transfer","inputs":[{"name":"to","type":"address","internalType":"address"},{"name":"value","type":"uint256","internalType":"uint256"}],"outputs":[{"name":"","type":"bool","internalType":"bool"}],"stateMutability":"nonpayable"},{"type":"function","name":"transferFrom","inputs":[{"name":"from","type":"address","internalType":"address"},{"name":"to","type":"address","internalType":"address"},{"name":"value","type":"uint256","internalType":"uint256"}],"outputs":[{"name":"","type":"bool","internalType":"bool"}],"stateMutability":"nonpayable"},{"type":"function","name":"transferOwnership","inputs":[{"name":"newOwner","type":"address","internalType":"address"}],"outputs":[],"stateMutability":"nonpayable"},{"type":"function","name":"withdrawETH","inputs":[{"name":"to","type":"address","internalType":"address payable"},{"name":"amount","type":"uint256","internalType":"uint256"}],"outputs":[],"stateMutability":"nonpayable"},{"type":"function","name":"withdrawTokens","inputs":[{"name":"to","type":"address","internalType":"address"},{"name":"amount","type":"uint256","internalType":"uint256"}],"outputs":[],"stateMutability":"nonpayable"},{"type":"event","name":"Approval","inputs":[{"name":"owner","type":"address","indexed":true,"internalType":"address"},{"name":"spender","type":"address","indexed":true,"internalType":"address"},{"name":"value","type":"uint256","indexed":false,"internalType":"uint256"}],"anonymous":false},{"type":"event","name":"OwnershipTransferred","inputs":[{"name":"previousOwner","type":"address","indexed":true,"internalType":"address"},{"name":"newOwner","type":"address","indexed":true,"internalType":"address"}],"anonymous":false},{"type":"event","name":"TokensPerEthUpdated","inputs":[{"name":"newRate","type":"uint256","indexed":false,"internalType":"uint256"}],"anonymous":false},{"type":"event","name":"TokensPurchased","inputs":[{"name":"buyer","type":"address","indexed":true,"internalType":"address"},{"name":"ethAmount","type":"uint256","indexed":false,"internalType":"uint256"},{"name":"tokenAmount","type":"uint256","indexed":false,"internalType":"uint256"}],"anonymous":false},{"type":"event","name":"Transfer","inputs":[{"name":"from","type":"address","indexed":true,"internalType":"address"},{"name":"to","type":"address","indexed":true,"internalType":"address"},{"name":"value","type":"uint256","indexed":false,"internalType":"uint256"}],"anonymous":false},{"type":"error","name":"ERC20InsufficientAllowance","inputs":[{"name":"spender","type":"address","internalType":"address"},{"name":"allowance","type":"uint256","internalType":"uint256"},{"name":"needed","type":"uint256","internalType":"uint256"}]},{"type":"error","name":"ERC20InsufficientBalance","inputs":[{"name":"sender","type":"address","internalType":"address"},{"name":"balance","type":"uint256","internalType":"uint256"},{"name":"needed","type":"uint256","internalType":"uint256"}]},{"type":"error","name":"ERC20InvalidApprover","inputs":[{"name":"approver","type":"address","internalType":"address"}]},{"type":"error","name":"ERC20InvalidReceiver","inputs":[{"name":"receiver","type":"address","internalType":"address"}]},{"type":"error","name":"ERC20InvalidSender","inputs":[{"name":"sender","type":"address","internalType":"address"}]},{"type":"error","name":"ERC20InvalidSpender","inputs":[{"name":"spender","type":"address","internalType":"address"}]},{"type":"error","name":"OwnableInvalidOwner","inputs":[{"name":"owner","type":"address","internalType":"address"}]},{"type":"error","name":"OwnableUnauthorizedAccount","inputs":[{"name":"account","type":"address","internalType":"address"}]}],"bytecode":{"object":"0x6080604052683635c9adc5dea000006006553480156200001d575f80fd5b5033604051806040016040528060068152602001654d656f77666960d01b815250604051806040016040528060048152602001634d454f5760e01b81525081600390816200006c9190620003b1565b5060046200007b8282620003b1565b5050506001600160a01b038116620000ad57604051631e4fbdf760e01b81525f60048201526024015b60405180910390fd5b620000b881620000ee565b50620000d1336b033b2e3c9fd0803ce80000006200013f565b620000e8333069d3c21bcecceda10000006200017b565b6200049f565b600580546001600160a01b038381166001600160a01b0319831681179093556040519116919082907f8be0079c531659141344cd1fd0a4f28419497f9722a3daafe3b4186f6b6457e0905f90a35050565b6001600160a01b0382166200016a5760405163ec442f0560e01b81525f6004820152602401620000a4565b620001775f8383620001e3565b5050565b6001600160a01b038316620001a657604051634b637e8f60e11b81525f6004820152602401620000a4565b6001600160a01b038216620001d15760405163ec442f0560e01b81525f6004820152602401620000a4565b620001de838383620001e3565b505050565b6001600160a01b03831662000211578060025f82825462000205919062000479565b90915550620002839050565b6001600160a01b0383165f9081526020819052604090205481811015620002655760405163391434e360e21b81526001600160a01b03851660048201526024810182905260448101839052606401620000a4565b6001600160a01b0384165f9081526020819052604090209082900390555b6001600160a01b038216620002a157600280548290039055620002bf565b6001600160a01b0382165f9081526020819052604090208054820190555b816001600160a01b0316836001600160a01b03167fddf252ad1be2c89b69c2b068fc378daa952ba7f163c4a11628f55a4df523b3ef836040516200030591815260200190565b60405180910390a3505050565b634e487b7160e01b5f52604160045260245ffd5b600181811c908216806200033b57607f821691505b6020821081036200035a57634e487b7160e01b5f52602260045260245ffd5b50919050565b601f821115620001de575f81815260208120601f850160051c81016020861015620003885750805b601f850160051c820191505b81811015620003a95782815560010162000394565b505050505050565b81516001600160401b03811115620003cd57620003cd62000312565b620003e581620003de845462000326565b8462000360565b602080601f8311600181146200041b575f8415620004035750858301515b5f19600386901b1c1916600185901b178555620003a9565b5f85815260208120601f198616915b828110156200044b578886015182559484019460019091019084016200042a565b50858210156200046957878501515f19600388901b60f8161c191681555b5050505050600190811b01905550565b808201808211156200049957634e487b7160e01b5f52601160045260245ffd5b92915050565b610d8080620004ad5f395ff3fe608060405260043610610113575f3560e01c806370a082311161009d578063a9059cbb11610062578063a9059cbb146102f1578063cbdd69b514610310578063d592cbf614610325578063dd62ed3e1461032d578063f2fde38b14610371575f80fd5b806370a082311461024f578063715018a6146102835780638da5cb5b14610297578063902d55a5146102be57806395d89b41146102dd575f80fd5b806318160ddd116100e357806318160ddd146101c357806323b872dd146101d7578063313ce567146101f65780634782f7791461021157806356238b0214610230575f80fd5b806306b091f91461011e57806306fdde031461013f5780630790f3c814610169578063095ea7b314610194575f80fd5b3661011a57005b5f80fd5b348015610129575f80fd5b5061013d610138366004610b92565b610390565b005b34801561014a575f80fd5b50610153610460565b6040516101609190610bbc565b60405180910390f35b348015610174575f80fd5b5061018669d3c21bcecceda100000081565b604051908152602001610160565b34801561019f575f80fd5b506101b36101ae366004610b92565b6104f0565b6040519015158152602001610160565b3480156101ce575f80fd5b50600254610186565b3480156101e2575f80fd5b506101b36101f1366004610c07565b610509565b348015610201575f80fd5b5060405160128152602001610160565b34801561021c575f80fd5b5061013d61022b366004610b92565b61052c565b34801561023b575f80fd5b5061013d61024a366004610c45565b610612565b34801561025a575f80fd5b50610186610269366004610c5c565b6001600160a01b03165f9081526020819052604090205490565b34801561028e575f80fd5b5061013d6106a4565b3480156102a2575f80fd5b506005546040516001600160a01b039091168152602001610160565b3480156102c9575f80fd5b506101866b033b2e3c9fd0803ce800000081565b3480156102e8575f80fd5b506101536106b7565b3480156102fc575f80fd5b506101b361030b366004610b92565b6106c6565b34801561031b575f80fd5b5061018660065481565b61013d6106d3565b348015610338575f80fd5b50610186610347366004610c7e565b6001600160a01b039182165f90815260016020908152604080832093909416825291909152205490565b34801561037c575f80fd5b5061013d61038b366004610c5c565b6107e5565b610398610822565b6001600160a01b0382166103f35760405162461bcd60e51b815260206004820152601b60248201527f43616e6e6f742073656e6420746f207a65726f2061646472657373000000000060448201526064015b60405180910390fd5b305f908152602081905260409020548111156104515760405162461bcd60e51b815260206004820152601d60248201527f496e73756666696369656e7420636f6e74726163742062616c616e636500000060448201526064016103ea565b61045c30838361084f565b5050565b60606003805461046f90610cb5565b80601f016020809104026020016040519081016040528092919081815260200182805461049b90610cb5565b80156104e65780601f106104bd576101008083540402835291602001916104e6565b820191905f5260205f20905b8154815290600101906020018083116104c957829003601f168201915b5050505050905090565b5f336104fd8185856108ac565b60019150505b92915050565b5f336105168582856108b9565b61052185858561084f565b506001949350505050565b610534610822565b6001600160a01b03821661058a5760405162461bcd60e51b815260206004820152601b60248201527f43616e6e6f742073656e6420746f207a65726f2061646472657373000000000060448201526064016103ea565b478111156105da5760405162461bcd60e51b815260206004820152601d60248201527f496e73756666696369656e7420636f6e74726163742062616c616e636500000060448201526064016103ea565b6040516001600160a01b0383169082156108fc029083905f818181858888f1935050505015801561060d573d5f803e3d5ffd5b505050565b61061a610822565b5f81116106695760405162461bcd60e51b815260206004820152601e60248201527f52617465206d7573742062652067726561746572207468616e207a65726f000060448201526064016103ea565b60068190556040518181527ff7729fa834bbef70b6d3257c2317a562aa88b56c81b544814f93dc5963a2c0039060200160405180910390a150565b6106ac610822565b6106b55f610935565b565b60606004805461046f90610cb5565b5f336104fd81858561084f565b5f34116107195760405162461bcd60e51b815260206004820152601460248201527353656e642045544820746f20627579204d454f5760601b60448201526064016103ea565b5f670de0b6b3a7640000600654346107319190610d01565b61073b9190610d18565b305f9081526020819052604090205490915081111561079c5760405162461bcd60e51b815260206004820152601b60248201527f4e6f7420656e6f756768204d454f5720696e20636f6e7472616374000000000060448201526064016103ea565b6107a730338361084f565b604080513481526020810183905233917f8fafebcaf9d154343dad25669bfa277f4fbacd7ac6b0c4fed522580e040a0f33910160405180910390a250565b6107ed610822565b6001600160a01b03811661081657604051631e4fbdf760e01b81525f60048201526024016103ea565b61081f81610935565b50565b6005546001600160a01b031633146106b55760405163118cdaa760e01b81523360048201526024016103ea565b6001600160a01b03831661087857604051634b637e8f60e11b81525f60048201526024016103ea565b6001600160a01b0382166108a15760405163ec442f0560e01b81525f60048201526024016103ea565b61060d838383610986565b61060d8383836001610aac565b6001600160a01b038381165f908152600160209081526040808320938616835292905220545f1981101561092f578181101561092157604051637dc7a0d960e11b81526001600160a01b038416600482015260248101829052604481018390526064016103ea565b61092f84848484035f610aac565b50505050565b600580546001600160a01b038381166001600160a01b0319831681179093556040519116919082907f8be0079c531659141344cd1fd0a4f28419497f9722a3daafe3b4186f6b6457e0905f90a35050565b6001600160a01b0383166109b0578060025f8282546109a59190610d37565b90915550610a209050565b6001600160a01b0383165f9081526020819052604090205481811015610a025760405163391434e360e21b81526001600160a01b038516600482015260248101829052604481018390526064016103ea565b6001600160a01b0384165f9081526020819052604090209082900390555b6001600160a01b038216610a3c57600280548290039055610a5a565b6001600160a01b0382165f9081526020819052604090208054820190555b816001600160a01b0316836001600160a01b03167fddf252ad1be2c89b69c2b068fc378daa952ba7f163c4a11628f55a4df523b3ef83604051610a9f91815260200190565b60405180910390a3505050565b6001600160a01b038416610ad55760405163e602df0560e01b81525f60048201526024016103ea565b6001600160a01b038316610afe57604051634a1406b160e11b81525f60048201526024016103ea565b6001600160a01b038085165f908152600160209081526040808320938716835292905220829055801561092f57826001600160a01b0316846001600160a01b03167f8c5be1e5ebec7d5bd14f71427d1e84f3dd0314c0f7b2291e5b200ac8c7c3b92584604051610b7091815260200190565b60405180910390a350505050565b6001600160a01b038116811461081f575f80fd5b5f8060408385031215610ba3575f80fd5b8235610bae81610b7e565b946020939093013593505050565b5f6020808352835180828501525f5b81811015610be757858101830151858201604001528201610bcb565b505f604082860101526040601f19601f8301168501019250505092915050565b5f805f60608486031215610c19575f80fd5b8335610c2481610b7e565b92506020840135610c3481610b7e565b929592945050506040919091013590565b5f60208284031215610c55575f80fd5b5035919050565b5f60208284031215610c6c575f80fd5b8135610c7781610b7e565b9392505050565b5f8060408385031215610c8f575f80fd5b8235610c9a81610b7e565b91506020830135610caa81610b7e565b809150509250929050565b600181811c90821680610cc957607f821691505b602082108103610ce757634e487b7160e01b5f52602260045260245ffd5b50919050565b634e487b7160e01b5f52601160045260245ffd5b808202811582820484141761050357610503610ced565b5f82610d3257634e487b7160e01b5f52601260045260245ffd5b500490565b8082018082111561050357610503610ced56fea2646970667358221220e301c4889a7b00edd6d2b32e206822b69531592bf8e9e637ccfb902e600d31ce64736f6c63430008140033","linkReferences":{}},"methodIdentifiers":{"INITIAL_CONTRACT_BALANCE()":"0790f3c8","TOTAL_SUPPLY()":"902d55a5","allowance(address,address)":"dd62ed3e","approve(address,uint256)":"095ea7b3","balanceOf(address)":"70a08231","decimals()":"313ce567","name()":"06fdde03","owner()":"8da5cb5b","renounceOwnership()":"715018a6","setTokensPerEth(uint256)":"56238b02","swapETHForTokens()":"d592cbf6","symbol()":"95d89b41","tokensPerEth()":"cbdd69b5","totalSupply()":"18160ddd","transfer(address,uint256)":"a9059cbb","transferFrom(address,address,uint256)":"23b872dd","transferOwnership(address)":"f2fde38b","withdrawETH(address,uint256)":"4782f779","withdrawTokens(address,uint256)":"06b091f9"},"id":6}